{
  "contractName": "Claimable",
  "abi": [
    {
      "anonymous": false,
      "inputs": [
        {
          "indexed": false,
          "internalType": "address",
          "name": "previousOwner",
          "type": "address"
        },
        {
          "indexed": false,
          "internalType": "address",
          "name": "newOwner",
          "type": "address"
        }
      ],
      "name": "OwnershipTransferred",
      "type": "event"
    },
    {
      "constant": true,
      "inputs": [],
      "name": "owner",
      "outputs": [
        {
          "internalType": "address",
          "name": "",
          "type": "address"
        }
      ],
      "payable": false,
      "stateMutability": "view",
      "type": "function"
    },
    {
      "constant": true,
      "inputs": [],
      "name": "pendingOwner",
      "outputs": [
        {
          "internalType": "address",
          "name": "",
          "type": "address"
        }
      ],
      "payable": false,
      "stateMutability": "view",
      "type": "function"
    },
    {
      "constant": false,
      "inputs": [
        {
          "internalType": "address",
          "name": "newOwner",
          "type": "address"
        }
      ],
      "name": "transferOwnership",
      "outputs": [],
      "payable": false,
      "stateMutability": "nonpayable",
      "type": "function"
    },
    {
      "constant": false,
      "inputs": [],
      "name": "claimOwnership",
      "outputs": [],
      "payable": false,
      "stateMutability": "nonpayable",
      "type": "function"
    }
  ],
  "bytecode": "0x608060405234801561001057600080fd5b506102dc806100206000396000f3fe608060405234801561001057600080fd5b506004361061004c5760003560e01c80634e71e0c8146100515780638da5cb5b1461005b578063e30c39781461007f578063f2fde38b14610087575b600080fd5b6100596100ad565b005b6100636101b7565b604080516001600160a01b039092168252519081900360200190f35b6100636101e9565b6100596004803603602081101561009d57600080fd5b50356001600160a01b0316610222565b6100b56101e9565b6001600160a01b0316336001600160a01b0316146100d257600080fd5b604080516b3832b73234b733a7bbb732b960a11b8082528251600c9281900383018120600090815260026020818152868320546437bbb732b960d91b85528751600595819003959095018520845282825287842080546001600160a01b039092166001600160a01b031992831617905594845286519384900390950190922081529252919020805490911690557f8be0079c531659141344cd1fd0a4f28419497f9722a3daafe3b4186f6b6457e06101886101b7565b6101906101e9565b604080516001600160a01b03938416815291909216602082015281519081900390910190a1565b604080516437bbb732b960d91b815281519081900360050190206000908152600260205220546001600160a01b031690565b604080516b3832b73234b733a7bbb732b960a11b8152815190819003600c0190206000908152600260205220546001600160a01b031690565b61022a6101b7565b6001600160a01b0316336001600160a01b03161461024757600080fd5b6001600160a01b03811661025a57600080fd5b604080516b3832b73234b733a7bbb732b960a11b8152815190819003600c019020600090815260026020522080546001600160a01b039092166001600160a01b031990921691909117905556fea265627a7a72315820617fc284615e3e1f25940e3ae1adbe28f4ff18b10aafe0dfb81f75a803fff61164736f6c634300050c0032",
  "source": "pragma solidity 0.5.12;\n\nimport \"./Ownable.sol\";\nimport \"./EternalStorage.sol\";\n\n\n/**\n * @title Claimable\n * @dev Extension for the Ownable contract, where the ownership needs to be claimed.\n * This allows the new owner to accept the transfer.\n */\ncontract Claimable is EternalStorage, Ownable {\n    function pendingOwner() public view returns (address) {\n        return addressStorage[keccak256(\"pendingOwner\")];\n    }\n\n    /**\n    * @dev Modifier throws if called by any account other than the pendingOwner.\n    */\n    modifier onlyPendingOwner() {\n        require(msg.sender == pendingOwner());\n        _;\n    }\n\n    /**\n    * @dev Allows the current owner to set the pendingOwner address.\n    * @param newOwner The address to transfer ownership to.\n    */\n    function transferOwnership(address newOwner) public onlyOwner {\n        require(newOwner != address(0));\n        addressStorage[keccak256(\"pendingOwner\")] = newOwner;\n    }\n\n    /**\n    * @dev Allows the pendingOwner address to finalize the transfer.\n    */\n    function claimOwnership() public onlyPendingOwner {\n        addressStorage[keccak256(\"owner\")] = addressStorage[keccak256(\"pendingOwner\")];\n        addressStorage[keccak256(\"pendingOwner\")] = address(0);\n        emit OwnershipTransferred(owner(), pendingOwner());\n    }\n}\n",
  "sourcePath": "/home/ingmedical16/04v/contracts/dev/Claimable.sol",
  "compiler": {
    "name": "solc",
    "version": "0.5.12+commit.7709ece9.Emscripten.clang"
  },
  "schemaVersion": "3.0.19",
  "updatedAt": "2020-01-05T17:15:31.387Z",
  "devdoc": {
    "details": "Extension for the Ownable contract, where the ownership needs to be claimed. This allows the new owner to accept the transfer.",
    "methods": {
      "claimOwnership()": {
        "details": "Allows the pendingOwner address to finalize the transfer."
      },
      "owner()": {
        "details": "Tells the address of the owner",
        "return": "the address of the owner"
      },
      "transferOwnership(address)": {
        "details": "Allows the current owner to set the pendingOwner address.",
        "params": {
          "newOwner": "The address to transfer ownership to."
        }
      }
    },
    "title": "Claimable"
  },
  "userdoc": {
    "methods": {}
  }
}