{
  "contractName": "EternalStorageProxyForStormMultisender",
  "abi": [
    {
      "inputs": [
        {
          "internalType": "address",
          "name": "_owner",
          "type": "address"
        }
      ],
      "payable": false,
      "stateMutability": "nonpayable",
      "type": "constructor"
    },
    {
      "anonymous": false,
      "inputs": [
        {
          "indexed": false,
          "internalType": "address",
          "name": "previousOwner",
          "type": "address"
        },
        {
          "indexed": false,
          "internalType": "address",
          "name": "newOwner",
          "type": "address"
        }
      ],
      "name": "ProxyOwnershipTransferred",
      "type": "event"
    },
    {
      "anonymous": false,
      "inputs": [
        {
          "indexed": false,
          "internalType": "string",
          "name": "version",
          "type": "string"
        },
        {
          "indexed": true,
          "internalType": "address",
          "name": "implementation",
          "type": "address"
        }
      ],
      "name": "Upgraded",
      "type": "event"
    },
    {
      "payable": true,
      "stateMutability": "payable",
      "type": "fallback"
    },
    {
      "constant": true,
      "inputs": [],
      "name": "implementation",
      "outputs": [
        {
          "internalType": "address",
          "name": "",
          "type": "address"
        }
      ],
      "payable": false,
      "stateMutability": "view",
      "type": "function"
    },
    {
      "constant": true,
      "inputs": [],
      "name": "proxyOwner",
      "outputs": [
        {
          "internalType": "address",
          "name": "",
          "type": "address"
        }
      ],
      "payable": false,
      "stateMutability": "view",
      "type": "function"
    },
    {
      "constant": false,
      "inputs": [
        {
          "internalType": "address",
          "name": "newOwner",
          "type": "address"
        }
      ],
      "name": "transferProxyOwnership",
      "outputs": [],
      "payable": false,
      "stateMutability": "nonpayable",
      "type": "function"
    },
    {
      "constant": false,
      "inputs": [
        {
          "internalType": "string",
          "name": "version",
          "type": "string"
        },
        {
          "internalType": "address",
          "name": "implementation",
          "type": "address"
        }
      ],
      "name": "upgradeTo",
      "outputs": [],
      "payable": false,
      "stateMutability": "nonpayable",
      "type": "function"
    },
    {
      "constant": false,
      "inputs": [
        {
          "internalType": "string",
          "name": "version",
          "type": "string"
        },
        {
          "internalType": "address",
          "name": "implementation",
          "type": "address"
        },
        {
          "internalType": "bytes",
          "name": "data",
          "type": "bytes"
        }
      ],
      "name": "upgradeToAndCall",
      "outputs": [],
      "payable": true,
      "stateMutability": "payable",
      "type": "function"
    },
    {
      "constant": true,
      "inputs": [],
      "name": "upgradeabilityOwner",
      "outputs": [
        {
          "internalType": "address",
          "name": "",
          "type": "address"
        }
      ],
      "payable": false,
      "stateMutability": "view",
      "type": "function"
    },
    {
      "constant": true,
      "inputs": [],
      "name": "version",
      "outputs": [
        {
          "internalType": "string",
          "name": "",
          "type": "string"
        }
      ],
      "payable": false,
      "stateMutability": "view",
      "type": "function"
    }
  ],
  "bytecode": "0x608060405234801561001057600080fd5b506040516108c63803806108c68339818101604052602081101561003357600080fd5b505180610048816001600160e01b0361004f16565b5050610071565b600080546001600160a01b0319166001600160a01b0392909216919091179055565b610846806100806000396000f3fe6080604052600436106100705760003560e01c80635c60da1b1161004e5780635c60da1b1461026a5780636fde82021461027f578063958a41dd14610294578063f1739cae146103d257610070565b8063025313a2146100ef57806354fd4d50146101205780635a8b1a9f146101aa575b600061007a610405565b90506001600160a01b03811661008f57600080fd5b60606000368080601f016020809104026020016040519081016040528093929190818152602001838380828437600092018290525084519495509384935091505060208401855af43d604051816000823e8280156100eb578282f35b8282fd5b3480156100fb57600080fd5b50610104610415565b604080516001600160a01b039092168252519081900360200190f35b34801561012c57600080fd5b50610135610424565b6040805160208082528351818301528351919283929083019185019080838360005b8381101561016f578181015183820152602001610157565b50505050905090810190601f16801561019c5780820380516001836020036101000a031916815260200191505b509250505060405180910390f35b3480156101b657600080fd5b50610268600480360360408110156101cd57600080fd5b8101906020810181356401000000008111156101e857600080fd5b8201836020820111156101fa57600080fd5b8035906020019184600183028401116401000000008311171561021c57600080fd5b91908080601f016020809104026020016040519081016040528093929190818152602001838380828437600092019190915250929550505090356001600160a01b031691506104b99050565b005b34801561027657600080fd5b50610104610405565b34801561028b57600080fd5b506101046104ec565b610268600480360360608110156102aa57600080fd5b8101906020810181356401000000008111156102c557600080fd5b8201836020820111156102d757600080fd5b803590602001918460018302840111640100000000831117156102f957600080fd5b91908080601f01602080910402602001604051908101604052809392919081815260200183838082843760009201919091525092956001600160a01b0385351695909490935060408101925060200135905064010000000081111561035d57600080fd5b82018360208201111561036f57600080fd5b8035906020019184600183028401116401000000008311171561039157600080fd5b91908080601f0160208091040260200160405190810160405280939291908181526020018383808284376000920191909152509295506104fb945050505050565b3480156103de57600080fd5b50610268600480360360208110156103f557600080fd5b50356001600160a01b03166105df565b6002546001600160a01b03165b90565b600061041f6104ec565b905090565b60018054604080516020601f600260001961010087891615020190951694909404938401819004810282018101909252828152606093909290918301828280156104af5780601f10610484576101008083540402835291602001916104af565b820191906000526020600020905b81548152906001019060200180831161049257829003601f168201915b5050505050905090565b6104c1610415565b6001600160a01b0316336001600160a01b0316146104de57600080fd5b6104e8828261066e565b5050565b6000546001600160a01b031690565b610503610415565b6001600160a01b0316336001600160a01b03161461052057600080fd5b61052a83836104b9565b6000826001600160a01b0316826040518082805190602001908083835b602083106105665780518252601f199092019160209182019101610547565b6001836020036101000a038019825116818451168082178552505050505050905001915050600060405180830381855af49150503d80600081146105c6576040519150601f19603f3d011682016040523d82523d6000602084013e6105cb565b606091505b50509050806105d957600080fd5b50505050565b6105e7610415565b6001600160a01b0316336001600160a01b03161461060457600080fd5b6001600160a01b03811661061757600080fd5b7f5a3e66efaa1e445ebd894728a69d6959842ea1e97bd79b892797106e270efcd9610640610415565b604080516001600160a01b03928316815291841660208301528051918290030190a161066b81610757565b50565b6002546001600160a01b038281169116141561068957600080fd5b815161069c906001906020850190610779565b50600280546001600160a01b0319166001600160a01b03831690811790915560408051602080825285518183015285517f8e05e0e35ff592971ca8b477d4285a33a61ded208d644042667b78693a472f5e938793928392918301919085019080838360005b83811015610719578181015183820152602001610701565b50505050905090810190601f1680156107465780820380516001836020036101000a031916815260200191505b509250505060405180910390a25050565b600080546001600160a01b0319166001600160a01b0392909216919091179055565b828054600181600116156101000203166002900490600052602060002090601f016020900481019282601f106107ba57805160ff19168380011785556107e7565b828001600101855582156107e7579182015b828111156107e75782518255916020019190600101906107cc565b506107f39291506107f7565b5090565b61041291905b808211156107f357600081556001016107fd56fea265627a7a7231582037bae9e149a9100346dd372a0f1afb6aee20eb9cfbdcbeaf7cd0e38270bbdb6e64736f6c634300050c0032",
  "source": "pragma solidity 0.5.12;\n\nimport \"./EternalStorage.sol\";\nimport \"./OwnedUpgradeabilityProxy.sol\";\n\n\n/**\n * @title EternalStorageProxy\n * @dev This proxy holds the storage of the token contract and delegates every call to the current implementation set.\n * Besides, it allows to upgrade the token's behaviour towards further implementations, and provides basic\n * authorization control functionalities\n */\ncontract EternalStorageProxyForStormMultisender is OwnedUpgradeabilityProxy, EternalStorage {\n\n    constructor(address _owner) public OwnedUpgradeabilityProxy(_owner) {}\n\n}\n",
  "sourcePath": "/home/ingmedical16/04v/contracts/dev/EternalStorageProxyForStormMultisender.sol",
  "compiler": {
    "name": "solc",
    "version": "0.5.12+commit.7709ece9.Emscripten.clang"
  },
  "schemaVersion": "3.0.19",
  "updatedAt": "2020-01-05T17:15:31.389Z",
  "devdoc": {
    "details": "This proxy holds the storage of the token contract and delegates every call to the current implementation set. Besides, it allows to upgrade the token's behaviour towards further implementations, and provides basic authorization control functionalities",
    "methods": {
      "implementation()": {
        "details": "Tells the address of the current implementation",
        "return": "address of the current implementation"
      },
      "proxyOwner()": {
        "details": "Tells the address of the proxy owner",
        "return": "the address of the proxy owner"
      },
      "transferProxyOwnership(address)": {
        "details": "Allows the current owner to transfer control of the contract to a newOwner.",
        "params": {
          "newOwner": "The address to transfer ownership to."
        }
      },
      "upgradeTo(string,address)": {
        "details": "Allows the upgradeability owner to upgrade the current version of the proxy.",
        "params": {
          "implementation": "representing the address of the new implementation to be set.",
          "version": "representing the version name of the new implementation to be set."
        }
      },
      "upgradeToAndCall(string,address,bytes)": {
        "details": "Allows the upgradeability owner to upgrade the current version of the proxy and call the new implementation to initialize whatever is needed through a low level call.",
        "params": {
          "data": "represents the msg.data to bet sent in the low level call. This parameter may include the function signature of the implementation to be called with the needed payload",
          "implementation": "representing the address of the new implementation to be set.",
          "version": "representing the version name of the new implementation to be set."
        }
      },
      "upgradeabilityOwner()": {
        "details": "Tells the address of the owner",
        "return": "the address of the owner"
      },
      "version()": {
        "details": "Tells the version name of the current implementation",
        "return": "string representing the name of the current version"
      }
    },
    "title": "EternalStorageProxy"
  },
  "userdoc": {
    "methods": {}
  }
}