{
  "contractName": "MultiSender",
  "abi": [
    {
      "inputs": [],
      "payable": false,
      "stateMutability": "nonpayable",
      "type": "constructor"
    },
    {
      "anonymous": false,
      "inputs": [
        {
          "indexed": false,
          "internalType": "address",
          "name": "token",
          "type": "address"
        },
        {
          "indexed": false,
          "internalType": "address",
          "name": "owner",
          "type": "address"
        },
        {
          "indexed": false,
          "internalType": "uint256",
          "name": "balance",
          "type": "uint256"
        }
      ],
      "name": "ClaimedTokens",
      "type": "event"
    },
    {
      "anonymous": false,
      "inputs": [
        {
          "indexed": false,
          "internalType": "uint256",
          "name": "total",
          "type": "uint256"
        },
        {
          "indexed": false,
          "internalType": "address",
          "name": "tokenAddress",
          "type": "address"
        }
      ],
      "name": "Multisended",
      "type": "event"
    },
    {
      "anonymous": false,
      "inputs": [
        {
          "indexed": false,
          "internalType": "address",
          "name": "previousOwner",
          "type": "address"
        },
        {
          "indexed": false,
          "internalType": "address",
          "name": "newOwner",
          "type": "address"
        }
      ],
      "name": "OwnershipTransferred",
      "type": "event"
    },
    {
      "payable": true,
      "stateMutability": "payable",
      "type": "fallback"
    },
    {
      "constant": false,
      "inputs": [],
      "name": "claimOwnership",
      "outputs": [],
      "payable": false,
      "stateMutability": "nonpayable",
      "type": "function"
    },
    {
      "constant": true,
      "inputs": [],
      "name": "implementation",
      "outputs": [
        {
          "internalType": "address",
          "name": "",
          "type": "address"
        }
      ],
      "payable": false,
      "stateMutability": "view",
      "type": "function"
    },
    {
      "constant": true,
      "inputs": [],
      "name": "owner",
      "outputs": [
        {
          "internalType": "address",
          "name": "",
          "type": "address"
        }
      ],
      "payable": false,
      "stateMutability": "view",
      "type": "function"
    },
    {
      "constant": true,
      "inputs": [],
      "name": "pendingOwner",
      "outputs": [
        {
          "internalType": "address",
          "name": "",
          "type": "address"
        }
      ],
      "payable": false,
      "stateMutability": "view",
      "type": "function"
    },
    {
      "constant": false,
      "inputs": [
        {
          "internalType": "address",
          "name": "newOwner",
          "type": "address"
        }
      ],
      "name": "transferOwnership",
      "outputs": [],
      "payable": false,
      "stateMutability": "nonpayable",
      "type": "function"
    },
    {
      "constant": true,
      "inputs": [],
      "name": "upgradeabilityOwner",
      "outputs": [
        {
          "internalType": "address",
          "name": "",
          "type": "address"
        }
      ],
      "payable": false,
      "stateMutability": "view",
      "type": "function"
    },
    {
      "constant": true,
      "inputs": [],
      "name": "version",
      "outputs": [
        {
          "internalType": "string",
          "name": "",
          "type": "string"
        }
      ],
      "payable": false,
      "stateMutability": "view",
      "type": "function"
    },
    {
      "constant": true,
      "inputs": [],
      "name": "initialized",
      "outputs": [
        {
          "internalType": "bool",
          "name": "",
          "type": "bool"
        }
      ],
      "payable": false,
      "stateMutability": "view",
      "type": "function"
    },
    {
      "constant": true,
      "inputs": [],
      "name": "tokenAddress",
      "outputs": [
        {
          "internalType": "address",
          "name": "",
          "type": "address"
        }
      ],
      "payable": false,
      "stateMutability": "view",
      "type": "function"
    },
    {
      "constant": false,
      "inputs": [
        {
          "internalType": "address",
          "name": "_btuToken",
          "type": "address"
        }
      ],
      "name": "setTokenAddress",
      "outputs": [],
      "payable": false,
      "stateMutability": "nonpayable",
      "type": "function"
    },
    {
      "constant": true,
      "inputs": [
        {
          "internalType": "address",
          "name": "customer",
          "type": "address"
        }
      ],
      "name": "txCount",
      "outputs": [
        {
          "internalType": "uint256",
          "name": "",
          "type": "uint256"
        }
      ],
      "payable": false,
      "stateMutability": "view",
      "type": "function"
    },
    {
      "constant": true,
      "inputs": [],
      "name": "arrayLimit",
      "outputs": [
        {
          "internalType": "uint256",
          "name": "",
          "type": "uint256"
        }
      ],
      "payable": false,
      "stateMutability": "view",
      "type": "function"
    },
    {
      "constant": false,
      "inputs": [
        {
          "internalType": "uint256",
          "name": "_newLimit",
          "type": "uint256"
        }
      ],
      "name": "setArrayLimit",
      "outputs": [],
      "payable": false,
      "stateMutability": "nonpayable",
      "type": "function"
    },
    {
      "constant": true,
      "inputs": [],
      "name": "discountStep",
      "outputs": [
        {
          "internalType": "uint256",
          "name": "",
          "type": "uint256"
        }
      ],
      "payable": false,
      "stateMutability": "view",
      "type": "function"
    },
    {
      "constant": false,
      "inputs": [
        {
          "internalType": "uint256",
          "name": "_newStep",
          "type": "uint256"
        }
      ],
      "name": "setDiscountStep",
      "outputs": [],
      "payable": false,
      "stateMutability": "nonpayable",
      "type": "function"
    },
    {
      "constant": true,
      "inputs": [],
      "name": "fee",
      "outputs": [
        {
          "internalType": "uint256",
          "name": "",
          "type": "uint256"
        }
      ],
      "payable": false,
      "stateMutability": "view",
      "type": "function"
    },
    {
      "constant": true,
      "inputs": [
        {
          "internalType": "address",
          "name": "_customer",
          "type": "address"
        }
      ],
      "name": "currentFee",
      "outputs": [
        {
          "internalType": "uint256",
          "name": "",
          "type": "uint256"
        }
      ],
      "payable": false,
      "stateMutability": "view",
      "type": "function"
    },
    {
      "constant": false,
      "inputs": [
        {
          "internalType": "uint256",
          "name": "_newStep",
          "type": "uint256"
        }
      ],
      "name": "setFee",
      "outputs": [],
      "payable": false,
      "stateMutability": "nonpayable",
      "type": "function"
    },
    {
      "constant": true,
      "inputs": [
        {
          "internalType": "address",
          "name": "_customer",
          "type": "address"
        }
      ],
      "name": "discountRate",
      "outputs": [
        {
          "internalType": "uint256",
          "name": "",
          "type": "uint256"
        }
      ],
      "payable": false,
      "stateMutability": "view",
      "type": "function"
    },
    {
      "constant": false,
      "inputs": [
        {
          "internalType": "address[]",
          "name": "_contributors",
          "type": "address[]"
        },
        {
          "internalType": "uint256[]",
          "name": "_balances",
          "type": "uint256[]"
        }
      ],
      "name": "multisendToken",
      "outputs": [],
      "payable": true,
      "stateMutability": "payable",
      "type": "function"
    },
    {
      "constant": false,
      "inputs": [
        {
          "internalType": "address[]",
          "name": "_contributors",
          "type": "address[]"
        },
        {
          "internalType": "uint256[]",
          "name": "_balances",
          "type": "uint256[]"
        }
      ],
      "name": "multisendEther",
      "outputs": [],
      "payable": true,
      "stateMutability": "payable",
      "type": "function"
    },
    {
      "constant": false,
      "inputs": [
        {
          "internalType": "address",
          "name": "_token",
          "type": "address"
        }
      ],
      "name": "claimTokens",
      "outputs": [],
      "payable": false,
      "stateMutability": "nonpayable",
      "type": "function"
    }
  ],
  "bytecode": "0x60806040523480156200001157600080fd5b5062000026336001600160e01b03620000d416565b6200003b60c86001600160e01b036200017c16565b62000055652d79883d20006001600160e01b03620001f816565b6200006b61beef6001600160e01b036200027416565b6200008666b1a2bc2ec500006001600160e01b036200030316565b604080517f72735f6d756c746973656e6465725f696e697469616c697a65640000000000008152815190819003601a0190206000908152600760205220805460ff19166001179055620003cd565b604080517f6f776e6572000000000000000000000000000000000000000000000000000000815281516005918190038201902060009081526020919091522080546001600160a01b0319166001600160a01b0383161790557f8be0079c531659141344cd1fd0a4f28419497f9722a3daafe3b4186f6b6457e06200015762000381565b604080516001600160a01b03928316815291841660208301528051918290030190a150565b6200018f6001600160e01b036200038116565b6001600160a01b0316336001600160a01b031614620001ad57600080fd5b80620001b857600080fd5b604080517f61727261794c696d6974000000000000000000000000000000000000000000008152815190819003600a019020600090815260036020522055565b6200020b6001600160e01b036200038116565b6001600160a01b0316336001600160a01b0316146200022957600080fd5b806200023457600080fd5b604080517f646973636f756e745374657000000000000000000000000000000000000000008152815190819003600c019020600090815260036020522055565b620002876001600160e01b036200038116565b6001600160a01b0316336001600160a01b031614620002a557600080fd5b604080517f746f6b656e4164647265737300000000000000000000000000000000000000008152815190819003600c019020600090815260056020522080546001600160a01b039092166001600160a01b0319909216919091179055565b620003166001600160e01b036200038116565b6001600160a01b0316336001600160a01b0316146200033457600080fd5b806200033f57600080fd5b604080517f6665650000000000000000000000000000000000000000000000000000000000815281516003918190038201902060009081526020919091522055565b604080517f6f776e65720000000000000000000000000000000000000000000000000000008152815160059181900382019020600090815260209190915220546001600160a01b031690565b6112ce80620003dd6000396000f3fe6080604052600436106101355760003560e01c8063ab883d28116100ab578063df8de3e71161006f578063df8de3e7146105de578063e30c397814610611578063e4e1f29b14610626578063ee8a0a301461063b578063eff8e74814610665578063f2fde38b1461069857610135565b8063ab883d281461033b578063b4ae641c1461045e578063c1258f6914610473578063d2d745b1146104a6578063ddca3f43146105c957610135565b8063591552da116100fd578063591552da1461025c5780635c60da1b146102a157806369fe0e2d146102d25780636fde8202146102fc5780638da5cb5b146103115780639d76ea581461032657610135565b8063158ef93e1461013757806326a4e8d2146101605780632f781393146101935780634e71e0c8146101bd57806354fd4d50146101d2575b005b34801561014357600080fd5b5061014c6106cb565b604080519115158252519081900360200190f35b34801561016c57600080fd5b506101356004803603602081101561018357600080fd5b50356001600160a01b031661070f565b34801561019f57600080fd5b50610135600480360360208110156101b657600080fd5b5035610781565b3480156101c957600080fd5b506101356107df565b3480156101de57600080fd5b506101e76108e5565b6040805160208082528351818301528351919283929083019185019080838360005b83811015610221578181015183820152602001610209565b50505050905090810190601f16801561024e5780820380516001836020036101000a031916815260200191505b509250505060405180910390f35b34801561026857600080fd5b5061028f6004803603602081101561027f57600080fd5b50356001600160a01b031661097a565b60408051918252519081900360200190f35b3480156102ad57600080fd5b506102b66109c3565b604080516001600160a01b039092168252519081900360200190f35b3480156102de57600080fd5b50610135600480360360208110156102f557600080fd5b50356109d2565b34801561030857600080fd5b506102b6610a29565b34801561031d57600080fd5b506102b6610a38565b34801561033257600080fd5b506102b6610a6c565b6101356004803603604081101561035157600080fd5b810190602081018135600160201b81111561036b57600080fd5b82018360208201111561037d57600080fd5b803590602001918460208302840111600160201b8311171561039e57600080fd5b9190808060200260200160405190810160405280939291908181526020018383602002808284376000920191909152509295949360208101935035915050600160201b8111156103ed57600080fd5b8201836020820111156103ff57600080fd5b803590602001918460208302840111600160201b8311171561042057600080fd5b919080806020026020016040519081016040528093929190818152602001838360200280828437600092019190915250929550610aa5945050505050565b34801561046a57600080fd5b5061028f610c1f565b34801561047f57600080fd5b5061028f6004803603602081101561049657600080fd5b50356001600160a01b0316610c4d565b610135600480360360408110156104bc57600080fd5b810190602081018135600160201b8111156104d657600080fd5b8201836020820111156104e857600080fd5b803590602001918460208302840111600160201b8311171561050957600080fd5b9190808060200260200160405190810160405280939291908181526020018383602002808284376000920191909152509295949360208101935035915050600160201b81111561055857600080fd5b82018360208201111561056a57600080fd5b803590602001918460208302840111600160201b8311171561058b57600080fd5b919080806020026020016040519081016040528093929190818152602001838360200280828437600092019190915250929550610ca6945050505050565b3480156105d557600080fd5b5061028f610e5d565b3480156105ea57600080fd5b506101356004803603602081101561060157600080fd5b50356001600160a01b0316610e86565b34801561061d57600080fd5b506102b661107c565b34801561063257600080fd5b5061028f6110b5565b34801561064757600080fd5b506101356004803603602081101561065e57600080fd5b50356110e5565b34801561067157600080fd5b5061028f6004803603602081101561068857600080fd5b50356001600160a01b0316611141565b3480156106a457600080fd5b50610135600480360360208110156106bb57600080fd5b50356001600160a01b031661116e565b604080517f72735f6d756c746973656e6465725f696e697469616c697a65640000000000008152815190819003601a01902060009081526007602052205460ff1690565b610717610a38565b6001600160a01b0316336001600160a01b03161461073457600080fd5b604080516b746f6b656e4164647265737360a01b8152815190819003600c019020600090815260056020522080546001600160a01b039092166001600160a01b0319909216919091179055565b610789610a38565b6001600160a01b0316336001600160a01b0316146107a657600080fd5b806107b057600080fd5b604080516b0646973636f756e74537465760a41b8152815190819003600c019020600090815260036020522055565b6107e761107c565b6001600160a01b0316336001600160a01b03161461080457600080fd5b604080516b3832b73234b733a7bbb732b960a11b8082528251600c9281900383018120600090815260056020818152868320546437bbb732b960d91b855287519485900383018520845282825287842080546001600160a01b039092166001600160a01b031992831617905594845286519384900390950190922081529252919020805490911690557f8be0079c531659141344cd1fd0a4f28419497f9722a3daafe3b4186f6b6457e06108b6610a38565b6108be61107c565b604080516001600160a01b03938416815291909216602082015281519081900390910190a1565b60018054604080516020601f600260001961010087891615020190951694909404938401819004810282018101909252828152606093909290918301828280156109705780601f1061094557610100808354040283529160200191610970565b820191906000526020600020905b81548152906001019060200180831161095357829003601f168201915b5050505050905090565b600061098533611141565b61098d610e5d565b11156109ba576109b361099f83611141565b6109a7610e5d565b9063ffffffff6111f316565b90506109be565b5060005b919050565b6002546001600160a01b031690565b6109da610a38565b6001600160a01b0316336001600160a01b0316146109f757600080fd5b80610a0157600080fd5b604080516266656560e81b815281516003918190038201902060009081526020919091522055565b6000546001600160a01b031690565b604080516437bbb732b960d91b8152815160059181900382019020600090815260209190915220546001600160a01b031690565b604080516b746f6b656e4164647265737360a01b8152815190819003600c0190206000908152600560205220546001600160a01b031690565b346000610ab13361097a565b905080821015610ac057600080fd5b610ac8610c1f565b84511115610ad557600080fd5b610ae5828263ffffffff6111f316565b915060005b8451811015610bba57838181518110610aff57fe5b6020026020010151831015610b1357600080fd5b610b39848281518110610b2257fe5b6020026020010151846111f390919063ffffffff16565b92506000610b62868381518110610b4c57fe5b60200260200101516001600160a01b031661120a565b9050806001600160a01b03166108fc868481518110610b7d57fe5b60200260200101519081150290604051600060405180830381858888f19350505050158015610bb0573d6000803e3d6000fd5b5050600101610aea565b610bdd33610bd86001610bcc33610c4d565b9063ffffffff61120d16565b61121c565b604080513481526000602082015281517f04afd2ce457d973046bd54f5d7d36368546da08b88be1bca8ae50e32b451da17929181900390910190a15050505050565b6040805169185c9c985e531a5b5a5d60b21b8152815190819003600a01902060009081526003602052205490565b60408051661d1e10dbdd5b9d60ca1b60208083019190915260609390931b6bffffffffffffffffffffffff191660278201528151808203601b018152603b90910182528051908301206000908152600390925290205490565b6000610cb13361097a565b1115610ccc57610cc03361097a565b341015610ccc57600080fd5b6000610cd6610c1f565b83511115610ce357600080fd5b6000610ced610a6c565b905060005b84518160ff161015610dfa57816001600160a01b03166323b872dd33878460ff1681518110610d1d57fe5b6020026020010151878560ff1681518110610d3457fe5b60200260200101516040518463ffffffff1660e01b815260040180846001600160a01b03166001600160a01b03168152602001836001600160a01b03166001600160a01b031681526020018281526020019350505050602060405180830381600087803b158015610da457600080fd5b505af1158015610db8573d6000803e3d6000fd5b505050506040513d6020811015610dce57600080fd5b50508351849060ff8316908110610de157fe5b6020026020010151830192508080600101915050610cf2565b610e0c33610bd86001610bcc33610c4d565b7f04afd2ce457d973046bd54f5d7d36368546da08b88be1bca8ae50e32b451da1783610e36610a6c565b604080519283526001600160a01b0390911660208301528051918290030190a15050505050565b604080516266656560e81b81528151600391819003820190206000908152602091909152205490565b610e8e610a38565b6001600160a01b0316336001600160a01b031614610eab57600080fd5b6001600160a01b038116610f14576000610ed4610ec6610a38565b6001600160a01b031661120a565b6040519091506001600160a01b03821690303180156108fc02916000818181858888f19350505050158015610f0d573d6000803e3d6000fd5b5050611079565b604080516370a0823160e01b8152306004820152905182916000916001600160a01b038416916370a08231916024808301926020929190829003018186803b158015610f5f57600080fd5b505afa158015610f73573d6000803e3d6000fd5b505050506040513d6020811015610f8957600080fd5b505190506001600160a01b03821663a9059cbb610fa4610a38565b836040518363ffffffff1660e01b815260040180836001600160a01b03166001600160a01b0316815260200182815260200192505050602060405180830381600087803b158015610ff457600080fd5b505af1158015611008573d6000803e3d6000fd5b505050506040513d602081101561101e57600080fd5b507ff931edb47c50b4b4104c187b5814a9aef5f709e17e2ecf9617e860cacade929c90508361104b610a38565b604080516001600160a01b03938416815291909216602082015280820184905290519081900360600190a150505b50565b604080516b3832b73234b733a7bbb732b960a11b8152815190819003600c0190206000908152600560205220546001600160a01b031690565b604080516b0646973636f756e74537465760a41b8152815190819003600c01902060009081526003602052205490565b6110ed610a38565b6001600160a01b0316336001600160a01b03161461110a57600080fd5b8061111457600080fd5b6040805169185c9c985e531a5b5a5d60b21b8152815190819003600a019020600090815260036020522055565b60008061114d83610c4d565b905061116761115a6110b5565b829063ffffffff61127516565b9392505050565b611176610a38565b6001600160a01b0316336001600160a01b03161461119357600080fd5b6001600160a01b0381166111a657600080fd5b604080516b3832b73234b733a7bbb732b960a11b8152815190819003600c019020600090815260056020522080546001600160a01b039092166001600160a01b0319909216919091179055565b6000828211156111ff57fe5b508082035b92915050565b90565b60008282018381101561116757fe5b60408051661d1e10dbdd5b9d60ca1b60208083019190915260609490941b6bffffffffffffffffffffffff191660278201528151808203601b018152603b90910182528051908401206000908152600390935290912055565b60008261128457506000611204565b8282028284828161129157fe5b041461116757fefea265627a7a7231582069a27de241df8356850b23d2d473d49b567546e5f9fecff150438d9e07f68fab64736f6c634300050c0032",
  "source": "pragma solidity 0.5.12;\nimport \"./dev/OwnedUpgradeabilityStorage.sol\";\nimport \"./dev/Claimable.sol\";\nimport \"./dev/SafeMath.sol\";\nimport \"./dev/address_make_payable.sol\";\n/**\n * @title ERC20Basic\n * @dev Simpler version of ERC20 interface\n * @dev see https://github.com/ethereum/EIPs/issues/179\n */\ncontract ERC20Basic {\n    function totalSupply() public view returns (uint256);\n    function balanceOf(address who) public view returns (uint256);\n    function transfer(address to, uint256 value) public returns (bool);\n    event Transfer(address indexed from, address indexed to, uint256 value);\n}\n\n/**\n * @title ERC20\n **/\ncontract ERC20 is ERC20Basic {\n    function allowance(address owner, address spender) public view returns (uint256);\n    function transferFrom(address from, address to, uint256 value) public returns (bool);\n    function approve(address spender, uint256 value) public returns (bool);\n    event Approval(address indexed owner, address indexed spender, uint256 value);\n}\n\ncontract MultiSender is  OwnedUpgradeabilityStorage, Claimable {\n    using address_make_payable for address;\n    using SafeMath for uint256;\n\n    event Multisended(uint256 total, address tokenAddress);\n    event ClaimedTokens(address token, address owner, uint256 balance);\n\n    modifier hasFee() {\n        if (currentFee(msg.sender) > 0) {\n            require(msg.value >= currentFee(msg.sender));\n        }\n        _;\n    }\n\n    constructor () public {\n        setOwner(msg.sender);\n        setArrayLimit(200);\n        setDiscountStep(0.00005 ether);\n        setTokenAddress(0x000000000000000000000000000000000000bEEF);\n        setFee(0.05 ether);\n        boolStorage[keccak256(\"rs_multisender_initialized\")] = true;\n    }\n\n    function() external payable {}\n\n\n\n    function initialized() public view returns (bool) {\n        return boolStorage[keccak256(\"rs_multisender_initialized\")];\n    }\n    function tokenAddress() public view returns (address) {\n        return addressStorage[keccak256(\"tokenAddress\")];\n    }\n    function setTokenAddress(address _btuToken) public onlyOwner {\n         addressStorage[keccak256(\"tokenAddress\")] = _btuToken;\n    }\n\n    function txCount(address customer) public view returns(uint256) {\n        return uintStorage[keccak256(abi.encodePacked(\"txCount\", customer))];\n    }\n\n    function arrayLimit() public view returns(uint256) {\n        return uintStorage[keccak256(\"arrayLimit\")];\n    }\n\n    function setArrayLimit(uint256 _newLimit) public onlyOwner {\n        require(_newLimit != 0);\n        uintStorage[keccak256(\"arrayLimit\")] = _newLimit;\n    }\n\n    function discountStep() public view returns(uint256) {\n        return uintStorage[keccak256(\"discountStep\")];\n    }\n\n    function setDiscountStep(uint256 _newStep) public onlyOwner {\n        require(_newStep != 0);\n        uintStorage[keccak256(\"discountStep\")] = _newStep;\n    }\n\n    function fee() public view returns(uint256) {\n        return uintStorage[keccak256(\"fee\")];\n    }\n\n    function currentFee(address _customer) public view returns(uint256) {\n        if (fee() > discountRate(msg.sender)) {\n            return fee().sub(discountRate(_customer));\n        } else {\n            return 0;\n        }\n    }\n\n    function setFee(uint256 _newStep) public onlyOwner {\n        require(_newStep != 0);\n        uintStorage[keccak256(\"fee\")] = _newStep;\n    }\n\n    function discountRate(address _customer) public view returns(uint256) {\n        uint256 count = txCount(_customer);\n        return count.mul(discountStep());\n    }\n\n    function multisendToken(address[] memory _contributors, uint256[] memory _balances) public hasFee payable {\n            uint256 total = 0;\n            require(_contributors.length <= arrayLimit());\n            ERC20 btuToken = ERC20(tokenAddress());\n            uint8 i = 0;\n            for (i; i < _contributors.length; i++) {\n                btuToken.transferFrom(msg.sender, _contributors[i], _balances[i]);\n                total += _balances[i];\n            }\n            setTxCount(msg.sender, txCount(msg.sender).add(1));\n            emit Multisended(total, tokenAddress());\n\n    }\n\n    function multisendEther(address[] memory _contributors, uint256[] memory  _balances) public payable {\n        uint256 total = msg.value;\n        uint256 frais = currentFee(msg.sender);\n        require(total >= frais);\n        require(_contributors.length <= arrayLimit());\n        total = total.sub(frais);\n        uint256 i = 0;\n        for (i; i < _contributors.length; i++) {\n            require(total >= _balances[i]);\n            total = total.sub(_balances[i]);\n            address payable addr = _contributors[i].make_payable();\n            addr.transfer(_balances[i]);\n        }\n        setTxCount(msg.sender, txCount(msg.sender).add(1));\n        emit Multisended(msg.value, address(0));\n    }\n\n    function claimTokens(address _token) public onlyOwner {\n        if (_token == address(0)) {\n            address payable addrowner = owner().make_payable();\n            addrowner.transfer(address(this).balance);\n            return;\n        }\n        ERC20 btuToken = ERC20(_token);\n        uint256 balance = btuToken.balanceOf(address(this));\n        btuToken.transfer(owner(), balance);\n        emit ClaimedTokens(_token, owner(), balance);\n    }\n\n    function setTxCount(address customer, uint256 _txCount) private {\n        uintStorage[keccak256(abi.encodePacked(\"txCount\", customer))] = _txCount;\n    }\n\n}\n",
  "sourcePath": "/home/ingmedical16/04v/contracts/MultiSender.sol",
  "compiler": {
    "name": "solc",
    "version": "0.5.12+commit.7709ece9.Emscripten.clang"
  },
  "schemaVersion": "3.0.19",
  "updatedAt": "2020-01-19T18:58:59.983Z",
  "networkType": "ethereum",
  "devdoc": {
    "methods": {
      "claimOwnership()": {
        "details": "Allows the pendingOwner address to finalize the transfer."
      },
      "implementation()": {
        "details": "Tells the address of the current implementation",
        "return": "address of the current implementation"
      },
      "owner()": {
        "details": "Tells the address of the owner",
        "return": "the address of the owner"
      },
      "transferOwnership(address)": {
        "details": "Allows the current owner to set the pendingOwner address.",
        "params": {
          "newOwner": "The address to transfer ownership to."
        }
      },
      "upgradeabilityOwner()": {
        "details": "Tells the address of the owner",
        "return": "the address of the owner"
      },
      "version()": {
        "details": "Tells the version name of the current implementation",
        "return": "string representing the name of the current version"
      }
    }
  },
  "userdoc": {
    "methods": {}
  }
}