{
  "contractName": "OwnedUpgradeabilityStorage",
  "abi": [
    {
      "constant": true,
      "inputs": [],
      "name": "implementation",
      "outputs": [
        {
          "internalType": "address",
          "name": "",
          "type": "address"
        }
      ],
      "payable": false,
      "stateMutability": "view",
      "type": "function"
    },
    {
      "constant": true,
      "inputs": [],
      "name": "upgradeabilityOwner",
      "outputs": [
        {
          "internalType": "address",
          "name": "",
          "type": "address"
        }
      ],
      "payable": false,
      "stateMutability": "view",
      "type": "function"
    },
    {
      "constant": true,
      "inputs": [],
      "name": "version",
      "outputs": [
        {
          "internalType": "string",
          "name": "",
          "type": "string"
        }
      ],
      "payable": false,
      "stateMutability": "view",
      "type": "function"
    }
  ],
  "bytecode": "0x608060405234801561001057600080fd5b506101d7806100206000396000f3fe608060405234801561001057600080fd5b50600436106100415760003560e01c806354fd4d50146100465780635c60da1b146100c35780636fde8202146100e7575b600080fd5b61004e6100ef565b6040805160208082528351818301528351919283929083019185019080838360005b83811015610088578181015183820152602001610070565b50505050905090810190601f1680156100b55780820380516001836020036101000a031916815260200191505b509250505060405180910390f35b6100cb610184565b604080516001600160a01b039092168252519081900360200190f35b6100cb610193565b60018054604080516020601f6002600019610100878916150201909516949094049384018190048102820181019092528281526060939092909183018282801561017a5780601f1061014f5761010080835404028352916020019161017a565b820191906000526020600020905b81548152906001019060200180831161015d57829003601f168201915b5050505050905090565b6002546001600160a01b031690565b6000546001600160a01b03169056fea265627a7a723158205a30b1752b1ac6b2fe3e2497e542bf94f1118d066010819bd4c764d3745dbe3364736f6c634300050c0032",
  "source": "pragma solidity 0.5.12;\n\nimport \"./EternalStorage.sol\";\nimport \"./UpgradeabilityStorage.sol\";\nimport \"./UpgradeabilityOwnerStorage.sol\";\n\n\n/**\n * @title OwnedUpgradeabilityStorage\n * @dev This is the storage necessary to perform upgradeable contracts.\n * This means, required state variables for upgradeability purpose and eternal storage per se.\n */\ncontract OwnedUpgradeabilityStorage is UpgradeabilityOwnerStorage, UpgradeabilityStorage, EternalStorage {}\n",
  "sourcePath": "/home/ingmedical16/04v/contracts/dev/OwnedUpgradeabilityStorage.sol",
  "compiler": {
    "name": "solc",
    "version": "0.5.12+commit.7709ece9.Emscripten.clang"
  },
  "schemaVersion": "3.0.19",
  "updatedAt": "2020-01-05T17:15:31.391Z",
  "devdoc": {
    "details": "This is the storage necessary to perform upgradeable contracts. This means, required state variables for upgradeability purpose and eternal storage per se.",
    "methods": {
      "implementation()": {
        "details": "Tells the address of the current implementation",
        "return": "address of the current implementation"
      },
      "upgradeabilityOwner()": {
        "details": "Tells the address of the owner",
        "return": "the address of the owner"
      },
      "version()": {
        "details": "Tells the version name of the current implementation",
        "return": "string representing the name of the current version"
      }
    },
    "title": "OwnedUpgradeabilityStorage"
  },
  "userdoc": {
    "methods": {}
  }
}