{
  "contractName": "UpgradeabilityOwnerStorage",
  "abi": [
    {
      "constant": true,
      "inputs": [],
      "name": "upgradeabilityOwner",
      "outputs": [
        {
          "internalType": "address",
          "name": "",
          "type": "address"
        }
      ],
      "payable": false,
      "stateMutability": "view",
      "type": "function"
    }
  ],
  "bytecode": "0x6080604052348015600f57600080fd5b5060938061001e6000396000f3fe6080604052348015600f57600080fd5b506004361060285760003560e01c80636fde820214602d575b600080fd5b6033604f565b604080516001600160a01b039092168252519081900360200190f35b6000546001600160a01b03169056fea265627a7a723158208ec8bfc75a507c4ab980421109db530ba44dce9074a68ab92376ea53d34315f764736f6c634300050c0032",
  "source": "pragma solidity 0.5.12;\n\n\n/**\n * @title UpgradeabilityOwnerStorage\n * @dev This contract keeps track of the upgradeability owner\n */\ncontract UpgradeabilityOwnerStorage {\n  // Owner of the contract\n    address private _upgradeabilityOwner;\n\n    /**\n    * @dev Tells the address of the owner\n    * @return the address of the owner\n    */\n    function upgradeabilityOwner() public view returns (address) {\n        return _upgradeabilityOwner;\n    }\n\n    /**\n    * @dev Sets the address of the owner\n    */\n    function setUpgradeabilityOwner(address newUpgradeabilityOwner) internal {\n        _upgradeabilityOwner = newUpgradeabilityOwner;\n    }\n\n}\n",
  "sourcePath": "/home/ingmedical16/04v/contracts/dev/UpgradeabilityOwnerStorage.sol",
  "compiler": {
    "name": "solc",
    "version": "0.5.12+commit.7709ece9.Emscripten.clang"
  },
  "schemaVersion": "3.0.19",
  "updatedAt": "2020-01-05T17:15:31.392Z",
  "devdoc": {
    "details": "This contract keeps track of the upgradeability owner",
    "methods": {
      "upgradeabilityOwner()": {
        "details": "Tells the address of the owner",
        "return": "the address of the owner"
      }
    },
    "title": "UpgradeabilityOwnerStorage"
  },
  "userdoc": {
    "methods": {}
  }
}