{
  "contractName": "UpgradeabilityProxy",
  "abi": [
    {
      "anonymous": false,
      "inputs": [
        {
          "indexed": false,
          "internalType": "string",
          "name": "version",
          "type": "string"
        },
        {
          "indexed": true,
          "internalType": "address",
          "name": "implementation",
          "type": "address"
        }
      ],
      "name": "Upgraded",
      "type": "event"
    },
    {
      "payable": true,
      "stateMutability": "payable",
      "type": "fallback"
    },
    {
      "constant": true,
      "inputs": [],
      "name": "implementation",
      "outputs": [
        {
          "internalType": "address",
          "name": "",
          "type": "address"
        }
      ],
      "payable": false,
      "stateMutability": "view",
      "type": "function"
    },
    {
      "constant": true,
      "inputs": [],
      "name": "version",
      "outputs": [
        {
          "internalType": "string",
          "name": "",
          "type": "string"
        }
      ],
      "payable": false,
      "stateMutability": "view",
      "type": "function"
    }
  ],
  "bytecode": "0x608060405234801561001057600080fd5b5061023d806100206000396000f3fe6080604052600436106100295760003560e01c806354fd4d50146100a85780635c60da1b14610132575b6000610033610163565b90506001600160a01b03811661004857600080fd5b60606000368080601f016020809104026020016040519081016040528093929190818152602001838380828437600092018290525084519495509384935091505060208401855af43d604051816000823e8280156100a4578282f35b8282fd5b3480156100b457600080fd5b506100bd610172565b6040805160208082528351818301528351919283929083019185019080838360005b838110156100f75781810151838201526020016100df565b50505050905090810190601f1680156101245780820380516001836020036101000a031916815260200191505b509250505060405180910390f35b34801561013e57600080fd5b50610147610163565b604080516001600160a01b039092168252519081900360200190f35b6001546001600160a01b031690565b60008054604080516020601f60026000196101006001881615020190951694909404938401819004810282018101909252828152606093909290918301828280156101fe5780601f106101d3576101008083540402835291602001916101fe565b820191906000526020600020905b8154815290600101906020018083116101e157829003601f168201915b505050505090509056fea265627a7a72315820a7ef38c08159a4b494ebba221562d063fcabd91d1858818e9591300aedcb060d64736f6c634300050c0032",
  "source": "pragma solidity 0.5.12;\n\nimport \"./Proxy.sol\";\nimport \"./UpgradeabilityStorage.sol\";\n\n\n/**\n * @title UpgradeabilityProxy\n * @dev This contract represents a proxy where the implementation address to which it will delegate can be upgraded\n */\ncontract UpgradeabilityProxy is Proxy, UpgradeabilityStorage {\n  /**\n  * @dev This event will be emitted every time the implementation gets upgraded\n  * @param version representing the version name of the upgraded implementation\n  * @param implementation representing the address of the upgraded implementation\n  */\n    event Upgraded(string version, address indexed implementation);\n\n    /**\n    * @dev Upgrades the implementation address\n    * @param version representing the version name of the new implementation to be set\n    * @param implementation representing the address of the new implementation to be set\n    */\n    function _upgradeTo(string memory version, address implementation) internal {\n        require(_implementation != implementation);\n        _version = version;\n        _implementation = implementation;\n        emit Upgraded(version, implementation);\n    }\n}\n",
  "sourcePath": "/home/ingmedical16/04v/contracts/dev/UpgradeabilityProxy.sol",
  "compiler": {
    "name": "solc",
    "version": "0.5.12+commit.7709ece9.Emscripten.clang"
  },
  "schemaVersion": "3.0.19",
  "updatedAt": "2020-01-05T17:15:31.393Z",
  "devdoc": {
    "details": "This contract represents a proxy where the implementation address to which it will delegate can be upgraded",
    "methods": {
      "implementation()": {
        "details": "Tells the address of the current implementation",
        "return": "address of the current implementation"
      },
      "version()": {
        "details": "Tells the version name of the current implementation",
        "return": "string representing the name of the current version"
      }
    },
    "title": "UpgradeabilityProxy"
  },
  "userdoc": {
    "methods": {}
  }
}