{
  "contractName": "UpgradeabilityStorage",
  "abi": [
    {
      "constant": true,
      "inputs": [],
      "name": "version",
      "outputs": [
        {
          "internalType": "string",
          "name": "",
          "type": "string"
        }
      ],
      "payable": false,
      "stateMutability": "view",
      "type": "function"
    },
    {
      "constant": true,
      "inputs": [],
      "name": "implementation",
      "outputs": [
        {
          "internalType": "address",
          "name": "",
          "type": "address"
        }
      ],
      "payable": false,
      "stateMutability": "view",
      "type": "function"
    }
  ],
  "bytecode": "0x608060405234801561001057600080fd5b506101b6806100206000396000f3fe608060405234801561001057600080fd5b50600436106100365760003560e01c806354fd4d501461003b5780635c60da1b146100b8575b600080fd5b6100436100dc565b6040805160208082528351818301528351919283929083019185019080838360005b8381101561007d578181015183820152602001610065565b50505050905090810190601f1680156100aa5780820380516001836020036101000a031916815260200191505b509250505060405180910390f35b6100c0610172565b604080516001600160a01b039092168252519081900360200190f35b60008054604080516020601f60026000196101006001881615020190951694909404938401819004810282018101909252828152606093909290918301828280156101685780601f1061013d57610100808354040283529160200191610168565b820191906000526020600020905b81548152906001019060200180831161014b57829003601f168201915b5050505050905090565b6001546001600160a01b03169056fea265627a7a723158208a0cef34e293ec83d157ba0dd3a97929302bd4b5060296fae465f9623c66f4f064736f6c634300050c0032",
  "source": "pragma solidity 0.5.12;\n\n\n/**\n * @title UpgradeabilityStorage\n * @dev This contract holds all the necessary state variables to support the upgrade functionality\n */\ncontract UpgradeabilityStorage {\n  // Version name of the current implementation\n    string internal _version;\n\n    // Address of the current implementation\n    address internal _implementation;\n\n    /**\n    * @dev Tells the version name of the current implementation\n    * @return string representing the name of the current version\n    */\n    function version() public view returns (string memory) {\n        return _version;\n    }\n\n    /**\n    * @dev Tells the address of the current implementation\n    * @return address of the current implementation\n    */\n    function implementation() public view returns (address) {\n        return _implementation;\n    }\n}\n",
  "sourcePath": "/home/ingmedical16/04v/contracts/dev/UpgradeabilityStorage.sol",
  "compiler": {
    "name": "solc",
    "version": "0.5.12+commit.7709ece9.Emscripten.clang"
  },
  "schemaVersion": "3.0.19",
  "updatedAt": "2020-01-05T17:15:31.393Z",
  "devdoc": {
    "details": "This contract holds all the necessary state variables to support the upgrade functionality",
    "methods": {
      "implementation()": {
        "details": "Tells the address of the current implementation",
        "return": "address of the current implementation"
      },
      "version()": {
        "details": "Tells the version name of the current implementation",
        "return": "string representing the name of the current version"
      }
    },
    "title": "UpgradeabilityStorage"
  },
  "userdoc": {
    "methods": {}
  }
}